:400000000080002011000000010500000105000008B5044B1A6803F53F5302331A6000F077FA00BFFA46004010B5054C237833B9044B13B10448AFF300800123237010BDFA
:400040005081FF1F0000000080090000084B10B51BB108490848AFF300800848036803B910BD074B002BFBD0BDE81040184700BF000000005481FF1F80090000C880FF1FE0
:40008000000000000522014B1A6070477481FF1F704700BF08B500F0A3FB014B186008BD7481FF1F08B500F0A1FA002000F00CFC072000F009FC002000F006FC08BD00BF1A
:4000C00008B500F093FA0222024B1A60002000F0FBFB08BD7481FF1F08B502220B4B1A60FF2000F0DFFBFF2000F0D6FBFF2000F0CDFBFF2000F0E2FBFF2000F0D9FBFF20BE
:4001000000F0E8FB002000F0DFFB08BD7481FF1F224B1B68062BFBD010B5204C2068C0B200F0C0FB062323601C4B1B68062BFBD01A4C2068C0B200F0AFFB06232360174BCE
:400140001B68062BFBD0154C2068C0B200F09EFB06232360114B1B68062BFBD00F4C2068C0B200F0ABFB062323600C4B1B68062BFBD00A4C2068C0B200F09AFB06232360A7
:40018000064B1B68062BFBD0044C2068C0B200F0A1FB062323600223236010BD7481FF1F08B50222054B1A6000F01AFA072000F08BFB062000F088FB08BD00BF7481FF1FE9
:4001C00038B502220F4B1A6000F02AFA0E4D287000F020FA687000F029FAA87000F044FB0A4C207000F046FB607000F049FBA0700321284600F016FB0321204600F012FB92
:4002000038BD00BF7481FF1F7081FF1F7881FF1F08B562B600F0D6FA0D4800F095FA0D4800F0EAF900F0E2F9002000F04DFB00F063FA0122084B1A6005E0074B1A68074BD5
:4002400053F822309847044B1B68002BF5D1F0E795000000850000007481FF1FCC80FF1FFEE700BFF0B40022174611E050F82760F3B226F0FF0608E001EB420511F8124014
:400280006D78A5550132013BDBB2002BF4D10137272FEBD9F0BC7047064B1B78DBB203F00701054A11701B09013213704422034B1A707047CF0100496E5800407658004086
:4002C00008B50A46002100F052FB08BD38B50024344B1C805823344A137002321480023213700122314B1A801823314A1370172102321180023213701A210232118002324D
:4003000013703321023211800232137042F6C652284B1A80192502331D70022203F266231A7008224FF040231A70032203F500731A70214B1B78DBB2204A13701022204B5B
:400340001A8041F25122023B1A800CE01D4B1B7803F0010343EA440404F003044FF4F07000F0BEFA013D0DB1032CEFD115B90320FFF776FF144B40F201121A8007221A7095
:400380000021124A117048210232117001221A700222033B1A700E4A137843F07F03137038BD00BF8040004082400040884000408A4000409840004008010049A146004014
:4003C00022420040254200400440004006400040A243004008B500F0BFFA08BD38B572B6364A137843F00403137000240CE0344D630019194A0011462A440846918828585F
:40040000FFF75EFF0134E4B2082CF0D900240CE02B48A20011194B000344B3F84020D96B986BFFF7D7FF0134E4B2012CF0D925494FF09040FFF716FF234A137843F0020329
:4004400013701032137843F0020313701F4C237843F040032370A2F58632513A137843F01003137008221A491A48FFF7B3FF0A2219491A48FFF7AEFF082219491948FFF727
:40048000A9FF082218491948FFF7A4FF184A137843F008031370174D61232B70FFF716FF81232B700122144B1A70FFF7F5FE0E2221461248FFF78EFF38BD00BFE846004009
:4004C00084090000A000004803500140A0430040180E004802510040200E0048C05100402C0E004812510040340E004822510040224300400048004004000840B0430040FA
:4005000008B500F0FDF903680C2B00D1FEE7FEE708B5104E104D16E029686B68AC68002204E051F8040B43F8040B0432A242F8D1E868002203E0002143F8041B04328242A0
:40054000F9D11035013E002EE6D100F0DFF9FFF75FFEFEE701000000F809000008B5104A104B1A60104A136843F40073136000230AE0032B03D80D4A52F8231000E00C4949
:400580000C4A42F8231001332F2BF2D90A4B1A780A4B1A70074A0A4B1A60FFF71FFF08BD0004FA050CED00E014ED00E000000000010500000080FF1FBC760040C080FF1F2F
:4005C00008ED00E0014B1B685864704708ED00E04001C0B2014B1870704700BF01E400E00222014B1A60704700E100E00222014B1A60704780E100E010B50446FFF7F6FF0F
:400600002046FFF7DFFF0720FFF7E2FFFFF7E8FF10BD00BF014B1878704700BF63640040014B1878704700BF6F640040014B1878704700BF66650040084A137843F00103EA
:4006400013701032137843F00103137002F64D32137843F001031370704700BFA3430040014B1880704700BF044F0040014B1880704700BF064F0040014B1870704700BFF2
:40068000034F004008B5194A137843F0020313700232137803F08F0343F010031370144B1A7802F0CF021A701A7842F030021A701A7802F0F0021A701A7842F00F021A7018
:4006C000FF20FFF7CDFF2620FFF7D0FF0020FFF7D3FF084A137843F00103137002F65E32137843F00103137008BD00BF004F00400B4F0040A343004008B5054B1B7823B973
:40070000FFF7C0FF0122024B1A70FFF795FF08BD6C81FF1F014B1B681864704708ED00E04001C0B2014B1870704700BF00E400E00122014B1A60704700E100E00122014B48
:400740001A60704780E100E010B50446FFF7F6FF2046FFF7DFFF0720FFF7E2FFFFF7E8FF10BD00BF7222084B1A70202202331A700622A3F5B4731A70472210331A70002231
:400780004F331A70704700BF8965004010B500F0AFF804460A4A137843F0200313700232137843F010031370A2F20912137843F01003137000F04AF8204600F09DF810BDB6
:4007C0009965004008B5054B1B7823B9FFF7CAFF0122024B1A70FFF7D9FF08BD6D81FF1F084B1B78DBB213F0200F06D0064A1078C0B213F01E0F02D1704700207047002071
:40080000704700BF6B6500404A650040034B1B7813F0040FFAD1024B187070476264004042640040084B1B7833B97047305DFFF7EDFF0134E4B203E070B50D46064600247B
:40084000AC42F3D370BD00BF6D81FF1F054A137843F0200313701032137843F020031370704700BFA2430040014B1878704700BF68640040014B1878704700BF676400401D
:40088000014B1878704700BF64640040014B1870704700BF75650040014B1870704700BF7A640040014B1870704700BF7D640040014B1870704700BF77640040014B18706E
:4008C000704700BF7B640040014B1870704700BF7C640040014B1870704700BF746400400230800803D000BF01380046FCD17047EFF3108072B6704780F31088704700BF76
:40090000014B1868704700BF4881FF1F0E4B70B51E460E4C0025E41AA410A54204D056F8253098470135F8E700F054F8084B094C1E46E41AA4100025A54204D056F82530AC
:4009400098470135F8E770BDE0090000E0090000E0090000E809000010B5431E0A44914204D011F8014B03F8014FF8E710BD03460244934202D003F8011BFAE7704700005E
:4009800000000000004F00400C00305100404000F05100401000000001400010001401400006801A0140800100400140000A004C014000021050014010000000001A0140DC
:4009C000880D0048800000500140080E0048100043000000F8B500BFF8BC08BC9E4670474D0000005D050000F8B500BFF8BC08BC9E46704729000000080A0000C880FF1F0A
:400A0000880000003000000000000000A5000000D900000091000000A1010000C1000000C101000011010000000000000000000000000000000000000000000000000000B8
:400A40000000000000000000D0090000000000000000000000000000000000000000000000000000000000000000000000000000000000000000000000000000000000009D
:400A80000000000000000000E880FF1F00000000000000000000000000000000000000000000000000000000000000000000000000000000000000000000000000000000B0
:400AC00000000000000000000000000000000000000000000000000000000000000000000000000000000000000000000000000000000000000000000000000000000000F6
:400B000000000000000000000000000000000000000000000000000000000000000000000000000000000000000000000000000000000000000000000000000000000000B5
:400B40000000000000000000000000000000000000000000000000000000000000000000000000000000000000000000000000000000000000000000000000000000000075
:400B80000000000000000000000000000000000000000000000000000000000000000000000000000000000000000000000000000000000000000000000000000000000035
:020000040003F7
:0200000480007A
:40000000024F0040045200400164004002650040010101405B0201403D0301403A04014047050140440601405B070140480801405A090140440A0140460B0140460C0140C8
:400040003C0D0140470E01403B0F014044140140521501404B1601405B17014048180140511901401D1A0140521B0140054001400741014005420140074301400244014024
:400080000645014005460140054701400348014007490140044D0140055001400151014001600A4E0022110260806440820F89728B38E608000A02540453050106041453E6
:4000C000160C1C201E45220828032A443040320F3501363038803A083E013F104034410645EE47BC483349FF4AFF4BFF4EF04F44500C5401580459045A045B045C055D5555
:400100005F0166C06A406B028056811082218510870C8B038D098E028F1092469438964398389A45A11CA229A302A50CA711AD14B063B207B418B51FB820BA0ABE10C00282
:40014000C540C9FFCA07CBFFCC40CD20CEF0CF05D008D4FFD804D904DA04DB0ADC55DD95DF01E040E1A8E240E32000800102040805060A100B880CC00D0810801688172087
:4001800019061A101B201C401D081F442110240429062B0239203AA03B8A3F0443204440450848404B024C044D014F04508056085702588259085B105C445D015F206020C3
:4001C000612062406380780880088620C039C2AEC458CA0BCE4FD0C4D220D6FFD80FDE02E008E20500040110020103200420050809200A400B100C100D400F80118012103E
:4002000013401408170819011A081D041E802102222024012606270428402B012C012E022F02300736F837FF38803E413F4054FF580459045B095D905F01851487098F0666
:400240009508971199199B02B318B504B703BB80BF10D904DC10DF01002001800280032008050A040B011080122A140116021A021B01230125442630280429C02A022B24E8
:4002800030A03104320833013408361439143B823D884C014D8059165A806040614062046308689069146B01702072A67A047C407F0281028320844086408D089CAA9D088D
:4002C0009E409F10A008A308A520A740AB08C00FC20FC40FCA0FCC6FCE5FD60FD80FDE04E208E608EE01020803100606087509050A8A0B0A0D030F0C1103130C141015059D
:400300001665170A1C201E552E852F0F30C03203331F340C36303A2A3F04580A59045C095F018408855087A089038A108B0C8D308E018FC093F09608970F980199059B0AB6
:400340009C029D039F0CA004A105A30AA604A950AA02ABA0AD30AFC0B01FB7FFB802BE01BF40D4FFD804D904DB09DD90DF01006001040410050608040A040B010C080E022F
:400380001101121815401A401C801D041E021F61200225042604285029042A202B022E40329133083501370538243A843C023F5045084704580559805B20611962406802D0
:4003C0006915720E73517A047D427E607F4180A0834088018A9090209202940296809782984099029AA09CA09D049E049F10A008A210A309A520A604A766A810AE10B280CC
:40040000B402B510B602B701C077C2A7C48ECA1DCCCFCEBED60FD80FDE44E040E204E605EA04EC0802480304065507200A550D040E6515131646172018551AAA1B081D022C
:400440001E551F1122552501265527122E80300C310332C0333034033630370C3AAA3B083F4054FF580959045B085C895D905F2180408280831B860489898A028B528D23B4
:400480008E088F1C91079201933894109620980199499B929C02A004A408A820AA10AC80AD1BAE40AFE4B5FFB6FFBE40BF10D804D904DF01006403400562071009840B840E
:4004C0000C440E020F081002111514101682170418011D401E051F0722202504268027402B012C1030013101332035043620374038023A203B403D083F8258045A045C08E8
:400500005E405F2264046540660267107C107D407E1081018204836089208A828B26901291159220934494459605978099249AA09B149C21A002A1C0A201A341A410A604E1
:40054000A714A901AE04AF01B304B440B710C0FFC2EFC4BFCA48CC75CEDDD6F0D8F0DE70E040E280EA90EE100210040405200708080209090B020C080D080F101001150492
:4005800017491A011E02220426082D092F363340353E361F370738803E403F50580459045B045C205F018102824684208501865589108B208D208F1091089680970198754B
:4005C00099809A8A9B409E489F04A302A410A665A708A904AD40AF80B003B1FFB2C0B430B60CBA8ABF01D809D904DB04DC09DF0100650680071009800B840E220F08110526
:40060000170418021B401D101E621F082250231027802B012D202E022F2A300435103601375838803B183D203EC5680269156D226F627180722073447589760277087C105B
:40064000841085088C4090909402968D9740980499049B049C219D809E209F88A140A501A605A728AB02AE10B004C03FC2EBC42CCAF8CCF2CEFEDE20E240EE080010010413
:40068000040806040701100212011308150118041A081B201F10201F2302241F25082B042C012D022E023120321F371F380839803E043F40580459045B045C205F01802049
:4006C000841F89898B529050931B951B968097E499499A409B929C1F9D079F38A001A123A202A31CA404A608A808AA04AC02AE01B020B2C0B3FFB41FB820B920BE15BF1483
:40070000D804D904DB04DF010104024004020620094A0A080E080F4012A1131014211504170118101B111D04200421082480270229012A012D802E012F28310232A4361161
:4007400037883B103D023E0468556D906F057080710173148004830486409510968097049C209F04A102A2A0A4D5A711AF01B012B312C03CC25FC4BFCAF1CCFFCEC4EC0858
:40078000008001020240042006100701080809040C040F02120213081508160819011A041C101E2020022304240127102A012C402E80311F32FF39023E043F015804590407
:4007C0005F018202831589D58A558B2A8D808F559309945596AA97159A099B259E959F02A715A940AA25AB95AE55AF15B003B1C0B230B330B40CB50CB6C0B703BAAABBA816
:40080000D4FFD804D904DB09DC88DD90DF3100AA020105010704080809080A450E060F201080124A13041408174019081D091E471F112102244026AA275029082A012D103D
:400840002F113042311832803310340A368037103A403B263C403E013F205C585F026450651067027C207E40842088128A208C108E01C05FC2EFC4CFCA73CCF7CEBFD6F08E
:40088000D8F0DEA00295065507810A250E550F4912021455151016AA176519201A091B551F0221752255238A26552A553003310C323033C0340C353036C037033AAA3B8ACC
:4008C000580A59045C895F0181028601870889108A108B208D208E048F109002914093809580960897409B019C049D04A202A304A401A508A808A901AF02B01FB5FFB802DD
:40090000BE01BF10D804D904DB04DF01008003A80620070609080A440C820D041018110214201501171018061A441B8E1E8021042292234A270428402C822DA82E283008FC
:400940003290342035103680370939083A083B403D053E113F406C806D046E106F117401759476407A207B0181408290880289088A049201940695409628985099209C02F8
:400980009D0C9EC09F02A048A109A220A321A401A642A706A850AA25AE04B612C0EFC2BEC47ECAF1CCFECEFADE0AE201E602EA0200130101022C03020445053F068A08230F
:4009C00009020A1C0B010C850D080E4A0F04120F140F150416F017081B401D50253F2B8032FF332035C0371F39883E043F5454FF580459045B0A5D905F018304865587083C
:400A000089108A098B208D208E028F109140929593809508965599029A259C559D019EAAA255A302A701A904AA55AD80AE55AF40B00CB203B3FFB430B6C0BAAABF04D804B0
:400A4000D904DC08DF010108020504A005040640084109400A200B040EA010081202130218A019201A411F082020241025482620280229802A1A2E042F08300632843310CF
:400A80003504365039153A803C023D083E6058015A015D485E105F0264016520660567047B017D088040811082888314852086108B018E808F209115945698109A0A9C0473
:400AC0009D909E109F25A04AA105A210A321A410A520A628A706AA04AB10AE48B008B610C0F7C23FC40BCA6FCC7FCEFFD6F0D8F0DE48E20FE604EA04EC04EE200202032501
:400B00000455055506AA07AA0A550B950E550F551309169517551A091B551E25265527552A552B552E552F023003310C32C03303340C35C0363037303AAA3BAA5804590B05
:400B40005C985F218205853F8602893F8A058D028E098F0595149605970A9A109D209E10A109A312A405A60AAE20B00CB107B230B318B403B720BA22BB20BE04D602D713B3
:400B8000D804D904DB04DC58DD50DF2100440344044005250610088409040A080E29121214041744184419201B181C201D011E291F602140220623442482250826012708B3
:400BC00028802C012E102F10324434203601370439243B403C803E263F085B0269246A8070A0731078087C087E9080418222830884408740880189089220944497809904DC
:400C00009B449D01A144A280A410A734A820A944B048B312B502B640B711C0FFC2E7C4E5CA71CCEACEFED601DEC2E620EA408220870288018A568E908F01965897029802E2
:400C40009A55A301A857AAA8B030B101B20CB302B403B6C0BA8ABF05D418D604D80BD904DB04DC09DD50DF01020803600541070408810A280E1810A012421310152019AA41
:400C80001A201B601C801D411E181F1020082209230224402508288029282A402F4030203209350439803B143C083F80404041404280436845084620499453405D02611015
:400CC000630466A067407E80821084018744882089508A048B108C80918092089314961497209B049CA09F02A0A0A282A308A440AD40C0DEC26FC44FCA8FCC47CE5ED00EE3
:400D0000D20CD680D8B0DE80E2A0E420322035408540CC30E61057805E088101A620D440D680E22059019901A624A780D6401A2070208E10A624A780C610DC207508DE041F
:400D40000A010C405301AD08C203D40197029840AC40B201EE018F019702B040E002EA01A624A780B0201B801E088620A624A780C6C0E64012208E20C408E20810201101F7
:400D80001B011C201D01000F0000F300F37F0C001C18E30000000006FF0000010F39F044820800004100000008010080043900420C670018C3100000C0802C1F0F401C205D
:400DC000002028080000004021060500030E0C0005FFFFFF62A0F0410C000000000000000404040055050001000000000000400200103010001010120000000000000000AE
:400E00000000000000000000260100000000000020010201040104010022220022000000800040808000800000000000000B0B0000000000C00202000200000100000000DA
:400E40000000000000000000000000000000000000000000000000000000000000000000000000000000000000000000000000000000000000000000000000000000000072
:400E80000000000000000000000000000000000000000000000000000000000000000000000000000000000000000000000000000000000000000000000000000000000032
:400EC00000000000000000000000000000000000000000000000000000000000000000000000000000000000000000000000000000000000000000000000000000000000F2
:400F000000000000000000000000000000000000000000000000000000000000000000000000000000000000000000000000000000000000000000000000000000000000B1
:0200000490006A
:0400000000004005B7
:0200000490105A
:04000000BC90ACAF55
:0200000490303A
:02000000A34A11
:0200000490402A
:4000000000000000000000000000000000000000000000000000000000000000000000000000000000000000000000000000000000000000000000000000000000000000C0
:400040000000000000000000000000000000000000000000000000000000000000000000000000000000000000000000000000000000000000000000000000000000000080
:400080000000000000000000000000000000000000000000000000000000000000000000000000000000000000000000000000000000000000000000000000000000000040
:4000C0000000000000000000000000000000000000000000000000000000000000000000000000000000000000000000000000000000000000000000000000000000000000
:0200000490501A
:0C00000000012E16106900012E1DB3B384
:00000001FF